S01700006368617474696E675F6D61737465722E73726563D0
S11300000C942A000C9461040C948A040C94B30498
S11300100C9447000C9447000C9447000C94470040
S11300200C9447000C9447000C9447000C94470030
S11300300C94EE040C9462050C9447000C9439055E
S11300400C9447000C9447000C9447000C94470010
S11300500C94470011241FBECFE5D8E0DEBFCDBF0E
S113006010E0A0E6B0E0EAE1FBE002C005900D92EA
S1130070A239B107D9F721E0A2E9B0E001C01D928D
S1130080A630B207E1F70E94C2010C948B050C94D0
S11300900000CF93C82F61E083E10E944F036C2FCF
S11300A0661F6627661F87E10E944F03C6FB66270B
S11300B060F986E10E944F03C5FB662760F985E17C
S11300C00E944F03C4FB662760F984E10E944F033A
S11300D061E082E10E944F038FEC97E00197F1F712
S11300E000C0000060E082E10E944F038FEC97E0C3
S11300F00197F1F700C00000C3FB662760F987E1B0
S11301000E944F03C2FB662760F986E10E944F03F9
S1130110C1FB662760F985E10E944F036C2F617073
S113012084E10E944F0361E082E10E944F038FEC5F
S113013097E00197F1F700C0000060E082E10E94BF
S11301404F038FEC97E00197F1F700C00000CF91C7
S11301500895CF93C82F60E083E10E944F036C2F72
S1130160661F6627661F87E10E944F03C6FB66274A
S113017060F986E10E944F03C5FB662760F985E1BB
S11301800E944F03C4FB662760F984E10E944F0379
S113019061E082E10E944F038FEC97E00197F1F751
S11301A000C0000060E082E10E944F038FEC97E002
S11301B00197F1F700C00000C3FB662760F987E1EF
S11301C00E944F03C2FB662760F986E10E944F0339
S11301D0C1FB662760F985E10E944F036C2F6170B3
S11301E084E10E944F0361E082E10E944F038FEC9F
S11301F097E00197F1F700C0000060E082E10E94FF
S11302004F038FEC97E00197F1F700C00000CF9106
S113021008952FE788E391E0215080409040E1F772
S113022000C0000082E00E94A90088E20E94A900A8
S11302308CE00E94A90081E00E94A9008FEC97E065
S11302400197F1F700C0000086E00E94A90008951C
S1130250CF93DF93D82FCFEFC60F813039F4C0315D
S113026028F48C2F80680E94A90009C0D23069F458
S1130270C03168F48C2F8068805C0E94A900C09310
S11302806100D093600080E003C083E001C083E09C
S1130290DF91CF91089580916100813178F0809150
S11302A06000813029F461E082E00E942801089511
S11302B0823021F461E081E00E9428010895CF9307
S11302C0C82F0E944B018C2F0E944900809161002D
S11302D08F5F80936100CF9108950F931F93CF9305
S11302E08C01C0E003C00E945F01CF5FF801EC0FF6
S11302F0F11D80818111F7CFCF911F910F91089546
S1130300E0919400F0E0EB56FF4F80818D3071F066
S1130310E0919400F0E0EA56FF4F80810E942305AB
S1130320809194008F5F80939400089510929400BC
S1130330089581E0809392001092940010929300AB
S11303408FEC97E00197F1F700C0000008950E9438
S11303502505E0919500F0E0E853FF4F80839091EC
S113036095009F5F909395008D3059F4E09195002E
S1130370F0E0E853FF4F108281E0809393001092E5
S1130380950008950E943F030E9409010E941705E9
S11303900E942B0587EA91E00E9434050E942705FC
S11303A080E891E00E942F0580E00E94DC0462E076
S11303B081E00E94D40381E00E943A0469E971E07B
S11303C081E00E944C0482E690E00E946D017894E2
S11303D02EC0C0919400D0E080E00E94E904CA5687
S11303E0DF4F88838FEC97E00197F1F700C000009E
S11303F0E0919400F0E0EA56FF4F80818D3091F453
S11304001092920010929400E0919400F0E0EA5669
S1130410FF4F80810E942305809194008F5F809319
S1130420940005C0809194008F5F80939400809124
S11304309200813071F2809193008130C1F713C032
S1130440E0919500F0E0E853FF4F80810E94E904B9
S1130450809195008F5F809395008FE19EE40197D2
S1130460F1F700C00000E0919500F0E0E853FF4F81
S113047080818111E5CF109295000E94E9041092C9
S11304809300D5CF982F9695969596958770613061
S113049009F455C020F0623009F4A1C008959130E8
S11304A0C1F028F0923039F19330B9F108954AB38C
S11304B021E030E0B90102C0660F771F8A95E2F7A8
S11304C0CB01942F982B9ABB9BB3809589238BBB2C
S11304D0089547B321E030E0B90102C0660F771FE9
S11304E08A95E2F7CB01942F982B97BB98B380950C
S11304F0892388BB089544B321E030E0B90102C0E8
S1130500660F771F8A95E2F7CB01942F982B94BB43
S113051095B38095892385BB089541B321E030E0EC
S1130520B90102C0660F771F8A95E2F7CB01942FB9
S1130530982B91BB92B38095892382BB0895913007
S1130540C1F028F0923039F19330B9F108954AB3EB
S113055021E030E0B90102C0660F771F8A95E2F707
S1130560CB018095942F98239ABB9BB389238BBB93
S1130570089547B321E030E0B90102C0660F771F48
S11305808A95E2F7CB018095942F982397BB98B373
S1130590892388BB089544B321E030E0B90102C047
S11305A0660F771F8A95E2F7CB018095942F9823E5
S11305B094BB95B3892385BB089541B321E030E012
S11305C0B90102C0660F771F8A95E2F7CB018095C7
S11305D0942F982391BB92B3892382BB08959130C1
S11305E0C1F028F0923039F19330B9F108954AB34B
S11305F021E030E0B90102C0660F771F8A95E2F767
S1130600CB01962F909594239ABB9BB3892B8BBBDC
S1130610089547B321E030E0B90102C0660F771FA7
S11306208A95E2F7CB01962F9095942397BB98B3C4
S1130630892B88BB089544B321E030E0B90102C09E
S1130640660F771F8A95E2F7CB01962F9095942336
S113065094BB95B3892B85BB089541B321E030E069
S1130660B90102C0660F771F8A95E2F7CB01962F76
S11306709095942391BB92B3892B82BB0895CF9319
S1130680C0E009C0EC2FF0E0EF58FF4F60818C2FE1
S11306900E944202CF5FC032A8F3CF910895982FF1
S11306A096959695969587706130E1F5913099F01D
S11306B028F09230E9F0933041F108954BB321E0F2
S11306C030E0B90102C0660F771F8A95E2F7CB01CB
S11306D0842B8BBB089548B321E030E0B90102C0FC
S11306E0660F771F8A95E2F7CB01842B88BB0895A8
S11306F045B321E030E0B90102C0660F771F8A9547
S1130700E2F7CB01842B85BB089542B321E030E0AE
S1130710B90102C0660F771F8A95E2F7CB01842BDB
S113072082BB089561113FC09130A1F028F092304E
S1130730F9F0933059F108954BB321E030E0B90159
S113074002C0660F771F8A95E2F7CB018095842358
S11307508BBB089548B321E030E0B90102C0660FB5
S1130760771F8A95E2F7CB018095842388BB08958F
S113077045B321E030E0B90102C0660F771F8A95C6
S1130780E2F7CB018095842385BB089542B321E031
S113079030E0B90102C0660F771F8A95E2F7CB01FA
S11307A08095842382BB0895813021F5613069F0FE
S11307B028F0623089F06330B1F0089585B78B7FFB
S11307C085BF85B7877F85BF089585B7846085BF5A
S11307D085B7877F85BF089585B78B7F85BF85B72C
S11307E0886085BF089585B7846085BF85B78860B4
S11307F085BF0895811124C0613069F028F062300A
S113080089F06330B1F0089585B78E7F85BF85B7D1
S11308108D7F85BF089585B7816085BF85B78D7F3E
S113082085BF089585B78E7F85BF85B7826085BFF4
S1130830089585B7816085BF85B7826085BF0895B7
S11308408230B9F4613051F028F0623059F06330ED
S113085069F0089584B7806484BF089584B7806480
S113086084BF089584B78F7B84BF089584B7806460
S113087084BF0895813021F48BB780688BBF0895BD
S1130880811104C08BB780648BBF0895823019F442
S11308908BB780628BBF0895813021F040F08230A5
S11308A059F008957093FD006093FC0008957093CF
S11308B0FF006093FE0008957093FB006093FA00BC
S11308C008951F920F920FB60F9211242F933F9306
S11308D04F935F936F937F938F939F93AF93BF9344
S11308E0EF93FF93E091FE00F091FF00309709F041
S11308F00995FF91EF91BF91AF919F918F917F9156
S11309006F915F914F913F912F910F900FBE0F9078
S11309101F9018951F920F920FB60F9211242F93C8
S11309203F934F935F936F937F938F939F93AF9373
S1130930BF93EF93FF93E091FC00F091FD0030979B
S113094009F00995FF91EF91BF91AF919F918F911C
S11309507F916F915F914F913F912F910F900FBEB7
S11309600F901F9018951F920F920FB60F9211249B
S11309702F933F934F935F936F937F938F939F93A3
S1130980AF93BF93EF93FF93E091FA00F091FB00D4
S1130990309709F00995FF91EF91BF91AF919F9125
S11309A08F917F916F915F914F913F912F910F9014
S11309B00FBE0F901F901895811104C08DB18061F6
S11309C08DB903C08DB18F7E8DB98DB180648DB921
S11309D008958FB9779BFECF8FB108951F920F9220
S11309E00FB60F9211242F933F934F935F936F93FE
S11309F07F938F939F93AF93BF93EF93FF93E09174
S1130A000001F0910101309709F00995FF91EF91F0
S1130A10BF91AF919F918F917F916F915F914F9112
S1130A203F912F910F900FBE0F901F90189583E365
S1130A3089B98BB18D7F8BB98AB188608AB98AB143
S1130A4080618AB908958CB908958CB108958AB1EA
S1130A5080648AB908958AB180688AB908959093A8
S1130A60050180930401089590930301809302018A
S1130A7008951F920F920FB60F9211242F933F9354
S1130A804F935F936F937F938F939F93AF93BF9392
S1130A90EF93FF93E0910401F0910501309709F081
S1130AA00995FF91EF91BF91AF919F918F917F91A4
S1130AB06F915F914F913F912F910F900FBE0F90C7
S1130AC01F9018951F920F920FB60F9211242F9317
S1130AD03F934F935F936F937F938F939F93AF93C2
S1130AE0BF93EF93FF93E0910201F09103013097DC
S1130AF009F00995FF91EF91BF91AF919F918F916B
S1130B007F916F915F914F913F912F910F900FBE05
S10D0B100F901F901895F894FFCF82
S1130B1A010120202048454C4C4F205043312020CD
S1130B2A00010000000000000000000000010001B4
S1130B3A00000000000000000002000201000000A2
S1050B4A0000A5
S9030000FC
