S01600006368617474696E675F736C6176652E7372656342
S11300000C942A000C9489030C94B2030C94DB0323
S11300100C9447000C9447000C9447000C94470040
S11300200C9447000C9447000C9447000C94470030
S11300300C9416040C9481040C9447000C945804FA
S11300400C9447000C9447000C9447000C94470010
S11300500C94470011241FBECFE5D8E0DEBFCDBF0E
S113006010E0A0E6B0E0E8E5F9E002C005900D92EA
S1130070A239B107D9F721E0A2E9B0E001C01D928D
S1130080A530B207E1F70E9480010C94AA040C94F5
S11300900000CF93C82F61E082E10E9404036C2F1B
S11300A0661F6627661F87E10E940403C6FB662756
S11300B060F986E10E940403C5FB662760F985E1C7
S11300C00E940403C4FB662760F984E10E940403D0
S11300D061E080E10E9404038FEC97E00197F1F75F
S11300E000C0000060E080E10E9404038FEC97E010
S11300F00197F1F700C00000C3FB662760F987E1B0
S11301000E940403C2FB662760F986E10E9404038F
S1130110C1FB662760F985E10E9404036C2F6170BE
S113012084E10E94040361E080E10E9404038FECF7
S113013097E00197F1F700C0000060E080E10E94C1
S113014004038FEC97E00197F1F700C00000CF9112
S11301500895CF93C82F60E082E10E9404036C2FBE
S1130160661F6627661F87E10E940403C6FB662795
S113017060F986E10E940403C5FB662760F985E106
S11301800E940403C4FB662760F984E10E9404030F
S113019061E080E10E9404038FEC97E00197F1F79E
S11301A000C0000060E080E10E9404038FEC97E04F
S11301B00197F1F700C00000C3FB662760F987E1EF
S11301C00E940403C2FB662760F986E10E940403CF
S11301D0C1FB662760F985E10E9404036C2F6170FE
S11301E084E10E94040361E080E10E9404038FEC37
S11301F097E00197F1F700C0000060E080E10E9401
S113020004038FEC97E00197F1F700C00000CF9151
S113021008952FE788E391E0215080409040E1F772
S113022000C0000082E00E94A90088E20E94A900A8
S11302308CE00E94A90081E00E94A9008FEC97E065
S11302400197F1F700C0000086E00E94A90008951C
S1130250CF93DF93D82FCFEFC60F813039F4C0315D
S113026028F48C2F80680E94A90009C0D23069F458
S1130270C03168F48C2F8068805C0E94A900C09310
S11302806100D093600080E003C083E001C083E09C
S1130290DF91CF91089580916100813178F0809150
S11302A06000813029F461E082E00E942801089511
S11302B0823021F461E081E00E9428010895CF9307
S11302C0C82F0E944B018C2F0E944900809161002D
S11302D08F5F80936100CF9108950F931F93CF9305
S11302E08C01C0E003C00E945F01CF5FF801EC0FF6
S11302F0F11D80818111F7CFCF911F910F91089546
S11303000E94F4020E9409010E943F040E944F04CB
S11303108FED91E00E94530481E00E94040483E67F
S113032090E00E946D0178941CC0E0919400F0E08C
S1130330E953FF4F80810E94110480919400E82FBB
S1130340F0E0E953FF4F90819D3041F41092940006
S113035081E080936200109292001CC08F5F8093B2
S11303609400809192008130A9F4DFCFE091930052
S1130370F0E0EB56FF4F80810E9411040E944B0471
S113038080919200813031F4809193008F5F80934B
S11303909300E7CF80916200813041F3E2CF81E0A6
S11303A08093920061E080E00E9404038DE08A95CE
S11303B0F1F7000060E080E00E94040308950E94C9
S11303C04D0490919400E92FF0E0E953FF4F8083AE
S11303D08D3049F481E0809392008FEF80939400F4
S11303E00E94CF0108959F5F909394000895982FE1
S11303F09695969596958770613009F455C020F0CE
S1130400623009F4A1C008959130C1F028F092300F
S113041039F19330B9F108954AB321E030E0B901DC
S113042002C0660F771F8A95E2F7CB01942F982BB1
S11304309ABB9BB3809589238BBB089547B321E076
S113044030E0B90102C0660F771F8A95E2F7CB014D
S1130450942F982B97BB98B38095892388BB0895D4
S113046044B321E030E0B90102C0660F771F8A95DA
S1130470E2F7CB01942F982B94BB95B380958923F5
S113048085BB089541B321E030E0B90102C0660F95
S1130490771F8A95E2F7CB01942F982B91BB92B3E7
S11304A08095892382BB08959130C1F028F0923061
S11304B039F19330B9F108954AB321E030E0B9013C
S11304C002C0660F771F8A95E2F7CB018095942FBF
S11304D098239ABB9BB389238BBB089547B321E030
S11304E030E0B90102C0660F771F8A95E2F7CB01AD
S11304F08095942F982397BB98B3892388BB08953C
S113050044B321E030E0B90102C0660F771F8A9539
S1130510E2F7CB018095942F982394BB95B389235C
S113052085BB089541B321E030E0B90102C0660FF4
S1130530771F8A95E2F7CB018095942F982391BB7E
S113054092B3892382BB08959130C1F028F0923090
S113055039F19330B9F108954AB321E030E0B9019B
S113056002C0660F771F8A95E2F7CB01962F90950C
S113057094239ABB9BB3892B8BBB089547B321E08B
S113058030E0B90102C0660F771F8A95E2F7CB010C
S1130590962F9095942397BB98B3892B88BB089585
S11305A044B321E030E0B90102C0660F771F8A9599
S11305B0E2F7CB01962F9095942394BB95B3892BA6
S11305C085BB089541B321E030E0B90102C0660F54
S11305D0771F8A95E2F7CB01962F9095942391BBD0
S11305E092B3892B82BB0895CF93C0E009C0EC2F4E
S11305F0F0E0EE58FF4F60818C2F0E94F701CF5F2F
S1130600C032A8F3CF910895982F96959695969514
S113061087706130E1F5913099F028F09230E9F07B
S1130620933041F108954BB321E030E0B90102C0A9
S1130630660F771F8A95E2F7CB01842B8BBB089555
S113064048B321E030E0B90102C0660F771F8A95F4
S1130650E2F7CB01842B88BB089545B321E030E059
S1130660B90102C0660F771F8A95E2F7CB01842B8C
S113067085BB089542B321E030E0B90102C0660FA2
S1130680771F8A95E2F7CB01842B82BB0895611111
S11306903FC09130A1F028F09230F9F0933059F135
S11306A008954BB321E030E0B90102C0660F771F13
S11306B08A95E2F7CB01809584238BBB089548B3D8
S11306C021E030E0B90102C0660F771F8A95E2F796
S11306D0CB018095842388BB089545B321E030E0A5
S11306E0B90102C0660F771F8A95E2F7CB018095A6
S11306F0842385BB089542B321E030E0B90102C0F0
S1130700660F771F8A95E2F7CB018095842382BB1D
S113071008951F920F920FB60F9211242F933F93B7
S11307204F935F936F937F938F939F93AF93BF93F5
S1130730EF93FF93E091FD00F091FE00309709F0F4
S11307400995FF91EF91BF91AF919F918F917F9107
S11307506F915F914F913F912F910F900FBE0F902A
S11307601F9018951F920F920FB60F9211242F937A
S11307703F934F935F936F937F938F939F93AF9325
S1130780BF93EF93FF93E091FB00F091FC0030974F
S113079009F00995FF91EF91BF91AF919F918F91CE
S11307A07F916F915F914F913F912F910F900FBE69
S11307B00F901F9018951F920F920FB60F9211244D
S11307C02F933F934F935F936F937F938F939F9355
S11307D0AF93BF93EF93FF93E091F900F091FA0088
S11307E0309709F00995FF91EF91BF91AF919F91D7
S11307F08F917F916F915F914F913F912F910F90C6
S11308000FBE0F901F901895811104C08DB18061A7
S11308108DB903C08DB18F7E8DB98DB180648DB9D2
S113082008958FB9779BFECF8FB108951F920F92D1
S11308300FB60F9211242F933F934F935F936F93AF
S11308407F938F939F93AF93BF93EF93FF93E09125
S1130850FF00F0910001309709F00995FF91EF91A5
S1130860BF91AF919F918F917F916F915F914F91C4
S11308703F912F910F900FBE0F901F90189583E317
S113088089B98BB18D7F8BB98AB188608AB98AB1F5
S113089080618AB908958CB908958CB108958AB19C
S11308A080688AB9089590930201809301010895A4
S11308B01F920F920FB60F9211242F933F934F93D1
S11308C05F936F937F938F939F93AF93BF93EF93B4
S11308D0FF93E0910301F0910401309709F0099529
S11308E0FF91EF91BF91AF919F918F917F916F9104
S11308F05F914F913F912F910F900FBE0F901F90DA
S113090018951F920F920FB60F9211242F933F93B5
S11309104F935F936F937F938F939F93AF93BF9303
S1130920EF93FF93E0910101F0910201309709F0F8
S11309300995FF91EF91BF91AF919F918F917F9115
S11309406F915F914F913F912F910F900FBE0F9038
S10B09501F901895F894FFCFE5
S1130958010101202020202048454C4C4F205043C1
S11309683200000000000000000000000000010147
S11309780001000000000000000002000202000064
S1050988000069
S9030000FC
